:100AFB004C65667400526967687400557000446FEA
:0B0B0B00776E0053746F70706564001B
:1009F700021A0000021C0007060EFF0100043F0058
:100A07000608FF0100023F00061EFF01000000006C
:100A17000624FF01000800200614FF010010002033
:100A9B00E4FDFCC3ED9FEC9E5015E4FBFA0BBB0091
:0F0AAB00010ABA04F8BBFBF50DBD00010C80E495
:010ABA002219
:10096200EF30E004D2A08002C2A0EF30E104D2A1B5
:100972008002C2A1EF30E204D2A28002C2A2EF3012
:10098200E304D2A38002C2A3EF30E404D2A4800223
:10099200C2A4EF30E504D2A58002C2A5EF30E6047E
:1009A200D2A68002C2A6EF30E703D2A722C2A722B4
:100B1600C280120962D2817F057E00120A9BC281C1
:010B260022AC
:050B3D007F01020B1610
:070A7900120B3D7D017F011E
:100A80008F2AA905E52AB40105E924808008E52A12
:0B0A9000B40207E924C0FF120B16227D
:100ABB00E4FF120962C2807F30120B167F38120BD3
:100ACB00167F0C120B167F01120B167F06020B16EC
:0A0B3300D280120962D281C2812231
:060A55008B2A8A2B892C7C
:100A5B00E4FDFCAB2AAA2BA92C8D828C83120A28CD
:0D0A6B00FF600A120B330DBD00010C80E688
:010A7800225B
:050B42007F1C020B16F0
:050B47007F18020B16EF
:0C0B2700758920758DFD759850D28E22C6
:10088C00120B27120ABB2093147B007A00790E12EC
:10089C00090C120A797BFF7A0A79FB8043209214A7
:1008AC007B007A00790812090C120A797BFF7A0B0B
:1008BC007900802C2090147B007A00792412090C8A
:1008CC00120A797BFF7A0B790680152091177B0031
:1008DC007A00791412090C120A797BFF7A0B7909C8
:1008EC00120A5580A120949E7B007A00791E120971
:1008FC000C120A797BFF7A0B790E120A55020892B8
:0609B2008B2D8A2E892F17
:1009B800E4F530E51D24FEFFE51C34FFFEE51D24AB
:1009C800FAFDE51C34FFFCC3EF9DEC6480F8EE648F
:1009D80080984018AB2DAA2EA92F8F828E83120AD9
:0E09E800282530F530EF1F70D41E80D1AF30BF
:0109F60022DE
:10090C008B2A8A2B892CE51D24FFFFE51C34FFFE66
:10091C00C3E51B9FEE6480F8E51A6480985021AB08
:10092C002AAA2BA92C051BE51BAE1A7002051A145A
:10093C00F5828E83120A28F5993099FDC29980C6EA
:10094C00AB2AAA2BA92C1209B28F993099FDC29906
:06095C00E4F51AF51B2270
:100ADB00E4FDFCC3ED9FEC9E5015E4FBFA0BBB0051
:0F0AEB00010ABA04F8BBFBF50DBD00010C80E455
:010AFA0022D9
:03000000020800F3
:0C080000787FE4F6D8FD758130020847CF
:100A2800BB010CE58229F582E5833AF583E0225083
:100A380006E92582F8E622BBFE06E92582F8E222CD
:0D0A4800E58229F582E5833AF583E49322E7
:10080C0002088CE493A3F8E493A34003F68001F26E
:10081C0008DFF48029E493A3F85407240CC8C333ED
:10082C00C4540F4420C8834004F456800146F6DFBC
:10083C00E4800B01020408102040809009F7E47E4C
:10084C00019360BCA3FF543F30E509541FFEE493B1
:10085C00A360010ECF54C025E060A840B8E493A378
:10086C00FAE493A3F8E493A3C8C582C8CAC583CAA3
:10087C00F0A3C8C582C8CAC583CADFE9DEE780BE5B
:010A270000CE
:00000001FF
