:100BFE000238000002250000012408013704013AE2
:0D0C0E0010012D02012900012CFF013B0106
:100C1C00758920758DFD759850D28ED2AFD2AC22CD
:03002300020800D0
:10080000C0E0C0F0C083C082C0D075D000C000C0BE
:1008100001C002C003C004C005C006C00720980381
:10082000020951859923C298E5264525701AE523CA
:10083000652C60030209510526E526700205251482
:10084000242EF8A6230209510526E5267002052567
:1008500014242EF8A623C3E5269407E52564809486
:10086000805003020951120BA2AE26742D2EF8E619
:100870006F600302095174282EF8E6653B6003029D
:100880000951742B2526F8E6FFD3942050067521D4
:100890000075220AEFD39420400CEFD3943F50060A
:1008A000752100752205EFD3943F40067521007530
:1008B0002203AF26742C2FF8E6D394205006752718
:1008C0000075280A742C2FF8E6D394204011742B5D
:1008D0002526F8E6D3943F5006752700752805AF06
:1008E00026742C2FF8E6D3943F4006752700752810
:1008F00003742A2FF8E6FFB52D08D202C201C20305
:10090000C200EFB53708C202D201C203C200EFB580
:100910002408D203C200C202C201EFB53A08C203E2
:10092000D200C202C201AF2674292FF8E6652970F1
:1009300020742A2FF8E6B52918742B2FF8E6B5296C
:1009400010742C2FF8E6B52908C202C201C203C2F6
:1009500000E526640745257003120C2CD007D0064D
:10096000D005D004D003D002D001D000D0D0D082A6
:07097000D083D0F0D0E0328B
:10097700120C1C120C2CC2B230022D120BD775A010
:100987000C120BDA75A004120BDA75A006120BDA3B
:1009970075A002120BDA75A003120BDA75A001120B
:1009A7000BDA75A009120BDA30012D75A001120BB5
:1009B700DA75A003120BDA75A002120BDA75A0061E
:1009C700120BDA75A004120BDA75A00C120BDA12EF
:1009D7000BD775A009120BDA300350759008AF28B2
:1009E700AE27120BDE75900CAF28AE27120BDE7503
:1009F7009004AF28AE27120BDE759006AF28AE27FE
:100A0700120BDE759002AF28AE27120BDE7590032E
:100A1700AF28AE27120BDE759001AF28AE27120B59
:100A2700DE759009AF28AE27120BDE2000030209FE
:100A37007F759001AF28AE27120BDE759003AF28A4
:100A4700AE27120BDE759002AF28AE27120BDE75AC
:100A57009006AF28AE27120BDE759004AF28AE279D
:100A6700120BDE75900CAF28AE27120BDE759008BF
:100A7700AF28AE27120BDE759009AF28AE27120BF1
:040A8700DE02097F03
:100BA200E4F52AF52BF535753605742E2536F8E66B
:100BB200252BF52BE4352AF52AE536153670021574
:100BC20035E536453570E3AE2AAF2B7C017D001248
:050BD2000B17AF052226
:0E0C2C00E4F525F5267F07782EE4F608DFFCB8
:010C3A002297
:070BD70075A008AF22AE215A
:100BDE00E4FDFCC3ED9FEC9E5015E4FBFA0BBB004D
:0F0BEE00010ABA04F8BBFBF50DBD00010C80E451
:010BFD0022D5
:03000000020A8B66
:0C0A8B00787FE4F6D8FD75813B020AD2AA
:100B1700C2D5EC30E709B2D5E4C39DFDE49CFCEEF9
:100B270030E715B2D5E4C39FFFE49EFE120B4DC319
:100B3700E49DFDE49CFC8003120B4D30D507C3E414
:060B47009FFFE49EFE2268
:100A9700020977E493A3F8E493A34003F68001F2F5
:100AA70008DFF48029E493A3F85407240CC8C33360
:100AB700C4540F4420C8834004F456800146F6DF2F
:100AC700E4800B0102040810204080900BFEE47EB6
:100AD700019360BCA3FF543F30E509541FFEE49324
:100AE700A360010ECF54C025E060A840B8E493A3EB
:100AF700FAE493A3F8E493A3C8C582C8CAC583CA16
:100B0700F0A3C8C582C8CAC583CADFE9DEE780BECD
:010C1B0000D8
:100B4D00BC000BBE0029EF8DF084FFADF022E4CC8C
:100B5D00F875F008EF2FFFEE33FEEC33FCEE9DEC55
:100B6D00984005FCEE9DFE0FD5F0E9E4CEFD22ED9B
:100B7D00F8F5F0EE8420D21CFEADF075F008EF2FE5
:100B8D00FFED33FD4007985006D5F0F222C398FDD6
:050B9D000FD5F0EA2273
:00000001FF
